:101CDB0025730A0A0070692063616C632E2E2E2E09
:101CEB002E2E2E2E2E2E2E2E2E2E2E2E2E2E2E2E09
:101CFB002E2E2E2E2E2E2E2E2E2E2E2E2E2E0070E5
:101D0B00693D2025732564202A206172637467283E
:101D1B00312F256429202573202564202A20617208
:101D2B0063746728312F25642920257320256420AF
:101D3B002A20617263746728312F256429205B2563
:101D4B00735D0A00002D002B0053746F6D657200DC
:101D5B0047617573730070693D20256C642E0025F7
:101D6B006C6425730020000A0025734449474954CD
:101D7B00533A2025640A0020202020200A0020202E
:101D8B0020204E756D626572206F66202020207CAE
:101D9B0020436F6D707574656420496E746567724E
:101DAB00616C207C200A0020496E746572696F7229
:101DBB0020506F696E7473207C20202020202020FF
:101DCB002020202020202020202020207C200A00E2
:101DDB002D2D2D2D2D2D2D2D2D2D2D2D2D2D2D2D28
:101DEB002D2D2D2D2D2D2D2D2D2D2D2D2D2D2D2D18
:101DFB002D2D2D2D2D200A00202531306420202063
:101E0B002020207C2020253134652020207C200AB6
:101E1B0000416E7469206368656174696E67207632
:101E2B006572696669636174696F6E20636F64655F
:101E3B002069733D3A25640A00466C6F6174696EC4
:101E4B00672D706F696E7420707265636973696F4B
:101E5B006E20252E33386C660A00416E7469206340
:101E6B0068656174696E672076657269666963611E
:101E7B0074696F6E20636F64652069733D25640A16
:101E8B0000546F74616C2074696D65202566207336
:101E9B0065636F6E6473200A00546865206C65730C
:101EAB0073207468652074696D652069742069738B
:101EBB0020757365642C20746865206D6F726520C6
:101ECB0074686520706572666F726D616E636520F4
:101EDB006265636F6D6573207374726F6E67657285
:101EEB0074210A00507265737320456E74657220FD
:101EFB00746F20657869740A0000300020001400AC
:101F0B00180008000400010001000000010001009E
:0D1F1B00010012003900EF0008003900EF4E
:07000300440D76000000002F
:1022C5005389F0438901758CFC758A18D2AFD2A960
:0522D500C28DD28C2235
:03000B0002222CA2
:10222C00C0E0C0F0C083C082C0D075D008758CFCF3
:10223C00758A18900D76E0FCA3E0FDA3E0FEA3E008
:10224C002401FFE43EFEE43DFDE43CFC900D7612DF
:0D225C0016FBD0D0D082D083D0F0D0E0327D
:0F22EE00900D76E0FCA3E0FDA3E0FEA3E0FF224D
:1022A60053877F538EBF538EFE75985053890F43C5
:0F22B6008920758DFD758BFDD28EC2ABD2AF2204
:10226900EF640A701C309811E599B4130CC29830C8
:1022790098FDE599B411F6C2983099FDC2997599FE
:102289000D309811E599B4130CC2983098FDE59971
:0D229900B411F6C2983099FDC2998F9922B8
:10000E0078EC7C0C7D017BFF7A1F79047E007F0CDF
:10001E001215BC78F87C0C7D017BFF7A1F79107E5F
:10002E00007F0C1215BC78047C0D7D017BFF7A1FBE
:10003E00791C7E007F0C1215BC900D2E1217070036
:10004E00000000900D3212170740C90FDBE4900D2F
:10005E003EF0A3F0A3F0A304F0E4A3F0A3F0A3F00A
:10006E00A37402F01222C51222A6900D10E4F0A382
:10007E007463F0E4900D1AF0A3F0900D4974FFF044
:10008E00A3741CF0A374E0F07BFF7A1C79DB1218CA
:10009E00C3900D1AE0FEA3E0FF900CF875F0061267
:1000AE001738EE75F006A42583F583E0FCA3E04C2B
:1000BE007BFF60067A1D794F80047A1D7950900D72
:1000CE0049EBF0A3EAF0A3E9F0900CEC75F006EF23
:1000DE00121738EE75F006A42583F583E0FDA3E034
:1000EE00900D4CCDF0A3EDF0900D0475F006EF12CF
:1000FE001738EE75F006A42583F583E0FFA3E09094
:10010E000D4ECFF0A3EFF0900D1AE0FEA3E0FF909E
:10011E000CFA75F006121738EE75F006A42583F565
:10012E0083E0FCA3E04C7BFF60067A1D79528004CD
:10013E007A1D7950900D50EBF0A3EAF0A3E9F09000
:10014E000CEE75F006EF121738EE75F006A4258347
:10015E00F583E0FDA3E0900D53CDF0A3EDF0900DEF
:10016E000675F006EF121738EE75F006A42583F526
:10017E0083E0FFA3E0900D55CFF0A3EFF0900D1AA2
:10018E00E0FEA3E0FF900CFC75F006121738EE753A
:10019E00F006A42583F583E0FCA3E04C7BFF60060C
:1001AE007A1D795280047A1D7950900D57EBF0A389
:1001BE00EAF0A3E9F0900CF075F006EF121738EEA6
:1001CE0075F006A42583F583E0FDA3E0900D5ACDCE
:1001DE00F0A3EDF0900D0875F006EF121738EE75DE
:1001EE00F006A42583F583E0FFA3E0900D5CCFF02D
:1001FE00A3EFF0900D1AE07002A3E07BFF60067A89
:10020E001D795480047A1D795B900D5EEBF0A3EAA4
:10021E00F0A3E9F07BFF7A1D790A1218C31222EEC1
:10022E009000001216FB900D10E0FFA3E0A3CFF09C
:10023E00A3EFF0900D12E0FEA3E0FFC3EE648094F6
:10024E0080402AEF7802C333CE33CED8F9240CF592
:10025E008274003EF58312170700000000900D1304
:10026E00E024FFF0900D12E034FFF080C6E4900D14
:10027E0018F0A3F0900D19E025E0FF900D18E03373
:10028E00FE900D1AE0FCA3E0FD900CF875F006123E
:10029E001738EC75F006A42583F583E5822FF582D9
:1002AE00E5833EF583E0FBA3E0900D16CBF0A3EBC8
:1002BE00F0900D0475F006ED121738EC75F006A4EB
:1002CE002583F583E5822FF582E5833EF583E0FEF7
:1002DE00A3E0FFEE3395E0FDFC900CE01216FB90D0
:1002EE000D19E025E0FF900D18E033FE900D1AE099
:1002FE00FCA3E0900CEC75F006121738EC75F006C6
:10030E00A42583F583E5822FF582E5833EF583E010
:10031E00FEA3E0FFEE3395E0FDFCC004C005C00671
:10032E00C007900D10E0FEA3E0FF900D14EEF0A3B9
:10033E00EFF0900D12EEF0A3EFF07802C333CE3350
:10034E00CED8F9244CF58274063EF583D007D0063C
:10035E00D005D0041216FB802A900D12E0FEA3E009
:10036E00FFC3EE64809480402AEF7802C333CE330D
:10037E00CED8F9244CF58274063EF5831217070089
:10038E00000000900D13E024FFF0900D12E034FFFA
:10039E00F080C6900CE412170700000000900D14B8
:1003AE00E0FFA3E0900D12CFF0A3EFF0C3900D127B
:1003BE00E0648094805003020573E47F0AFEFDFC26
:1003CE00900CE4E0F8A3E0F9A3E0FAA3E0FB121628
:1003DE0050C004C005C006C007900D12E0FEA3E099
:1003EE007802C333CE33CED8F9244CF58274063E50
:1003FE00F583E0F8A3E0F9A3E0FAA3E0D007D00676
:10040E00D005D0042FFFEA3EFEE93DFDE83CFC900E
:10041E000CDC1216FB900CE0E0F8A3E0F9A3E0FA76
:10042E00A3E0FB1221E8AC00AD01AE02AF03900CCD
:10043E00E41216FB900CE0E0F8A3E0F9A3E0FAA3B7
:10044E00E0FB900CDCE0FCA3E0FDA3E0FEA3E0FFEC
:10045E001221E8C004C005C006C007900D12E0FED0
:10046E00A3E07802C333CE33CED8F9FBAA06244CD0
:10047E00F58274063AF583D007D006D005D0041263
:10048E0016FB900D16E07002A3E06058740C2BF56D
:10049E008274003AF583C083C082E0FCA3E0FDA322
:1004AE00E0FEA3E0FFC004C005C006C007900D1219
:1004BE00E0FEA3E07802C333CE33CED8F9244CF558
:1004CE008274063EF583E0F8A3E0F9A3E0FAA3E018
:1004DE00D007D006D005D0042FFFEE3AFEED39FD41
:1004EE00EC388068900D12E0FEA3E07802C333CEA4
:1004FE0033CED8F9240CF58274003EF583C083C048
:10050E0082E0FCA3E0FDA3E0FEA3E0FFC004C00573
:10051E00C006C007900D12E0FEA3E07802C333CEF2
:10052E0033CED8F9244CF58274063EF583E0F8A359
:10053E00E0F9A3E0FAA3E0FBD007D006D005D00483
:10054E00C3EF9BFFEE9AFEED99FDEC98FCD082D0A6
:10055E00831216FB900D13E024FFF0900D12E03481
:10056E00FFF00203BA900D14E0FEA3E0FFD3940057
:10057E00EE648094804034EF7802C333CE33CED80D
:10058E00F9244CF58274063EF583E0FCA3E0FDA34E
:10059E00E0FEA3E0FFEC4D4E4F7010900D15E024E1
:1005AE00FFF0900D14E034FFF080BA900D16E0705D
:1005BE0002A3E070047F0180027F00900D16E4F02C
:1005CE00A3EFF0900CE812170700000003900CE068
:1005DE00E0FCA3E0FDA3E0FEA3E0FFA804A905AAAA
:1005EE0006FB121650900CE00208EC900D14E0FA87
:1005FE00A3E0FBD39400EA6480948050030208F2D7
:10060E00900CE412170700000000900D12EAF0A300
:10061E00EBF0C3900D12E064809480500302070447
:10062E00E47F0AFEFDFC900CE4E0F8A3E0F9A3E001
:10063E00FAA3E0FB121650C004C005C006C0079016
:10064E000D12E0FEA3E07802C333CE33CED8F924E8
:10065E004CF58274063EF583E0F8A3E0F9A3E0FAC8
:10066E00A3E0D007D006D005D0042FFFEA3EFEE966
:10067E003DFDE83CFC900CDC1216FB900CE0E0F823
:10068E00A3E0F9A3E0FAA3E0FB1221E8AC00AD0170
:10069E00AE02AF03900CE41216FB900CE0E0F8A350
:1006AE00E0F9A3E0FAA3E0FB900CDCE0FCA3E0FD94
:1006BE00A3E0FEA3E0FF1221E8C004C005C006C0FF
:1006CE0007900D12E0FEA3E07802C333CE33CED8EE
:1006DE00F9244CF58274063EF583D007D006D0057A
:1006EE00D0041216FB900D13E024FFF0900D12E0D3
:1006FE0034FFF0020620900D14E0FEA3E0FFD39429
:10070E0000EE648094804034EF7802C333CE33CE53
:10071E00D8F9244CF58274063EF583E0FCA3E0FD87
:10072E00A3E0FEA3E0FFEC4D4E4F7010900D15E0D0
:10073E0024FFF0900D14E034FFF080BA900CE41218
:10074E00170700000000900D14E0FFA3E0900D12BB
:10075E00CFF0A3EFF0C3900D12E0648094805003AD
:10076E000208B8E47F0AFEFDFC900CE4E0F8A3E07A
:10077E00F9A3E0FAA3E0FB121650C004C005C006B0
:10078E00C007900D12E0FEA3E07802C333CE33CE45
:10079E00D8F9244CF58274063EF583E0F8A3E0F90F
:1007AE00A3E0FAA3E0D007D006D005D0042FFFEACD
:1007BE003EFEE93DFDE83CFC900CDC1216FB900C75
:1007CE00E8E0F8A3E0F9A3E0FAA3E0FB1221E8AC1D
:1007DE0000AD01AE02AF03900CE41216FB900CDCE0
:1007EE00E0FCA3E0FDA3E0FEA3E0FF900CE8E0F840
:1007FE00A3E0F9A3E0FAA3E0FB1221E8900CDC12CF
:10080E0016FB900D16E07002A3E06043900D12E00F
:10081E00FEA3E07802C333CE33CED8F9240CF58292
:10082E0074003EF583C083C082E0FCA3E0FDA3E02C
:10083E00FEA3E0FF900CDCE0F8A3E0F9A3E0FAA33E
:10084E00E0FBEF2BFFEE3AFEED39FDEC38804290E7
:10085E000D12E0FEA3E07802C333CE33CED8F924D6
:10086E000CF58274003EF583C083C082E0FCA3E0E9
:10087E00FDA3E0FEA3E0FF900CDCE0F8A3E0F9A3FB
:10088E00E0FAA3E0FBC3EF9BFFEE9AFEED99FDECC1
:10089E0098FCD082D0831216FB900D13E024FFF04B
:1008AE00900D12E034FFF0020763900D16E0700217
:1008BE00A3E070047F0180027F00900D16E4F0A388
:1008CE00EFF0900CE8E0FCA3E0FDA3E0FEA3E02433
:1008DE0002FFE43EFEE43DFDE43CFC900CE8121603
:1008EE00FB0205F9900D19E004F07006900D18E06A
:1008FE0004F0900D18E07004A3E06403600302029C
:10090E0082E4900D12F0A3F0900CE0121707000095
:10091E000000900D10E0FEA3E0FFA3E0FCA3E0FDBD
:10092E00D39FEE6480F8EC6480984003020A3BED9E
:10093E00AE047802C333CE33CED8F9240CF58274CC
:10094E00003EF583E0FCA3E0FDA3E0FEA3E0FF90F4
:10095E000CE0E0F8A3E0F9A3E0FAA3E0FBEF2BFF35
:10096E00EE3AFEED39FDEC38FC900CDC1216FBE491
:10097E007B0AFAF9F81221E8900CE01216FBE47BE0
:10098E000AFAF9F8900CDCE0FCA3E0FDA3E0FEA36C
:10099E00E0FF1221E8AC00AD01AE02AF03900CE413
:1009AE001216FBEC335043900CE4E0FCA3E0FDA3E5
:1009BE00E0FEA3E0240AFFE43EFEE43DFDE43CFC41
:1009CE00900CE41216FB900CE0E0FCA3E0FDA3E01B
:1009DE00FEA3E0FFEF24FFFFEE34FFFEED34FFFD3C
:1009EE00EC34FFFC900CE01216FB900CE4E0FCA340
:1009FE00E0FDA3E0FEA3E0FFC004C005C006C007F3
:100A0E00900D12E475F00112163AFEE5F07802C36D
:100A1E0033CE33CED8F9240CF58274003EF583D054
:100A2E0007D006D005D0041216FB0209207BFF7AF0
:100A3E001D7961900D10E0FEA3E07802C333CE3332
:100A4E00CED8F9240CF58274003EF583E0FCA3E0C9
:100A5E00FDA3E0FEA3E0FF900D491216FB1218C392
:100A6E00900D11E024FFFE900D10E034FF900D125A
:100A7E00F0A3CEF0C3900D13E09405900D12E06438
:100A8E008094805003020B53E0FAA3E0FBAE027891
:100A9E0002C333CE33CED8F9240CF58274003EF562
:100AAE0083E0FCA3E0FDA3E0FEA3E0FF900D49125E
:100ABE0016FBC3900D11E09BFF900D10E09ACF2412
:100ACE0005CF3400FE3395E0FDFC900CDC1216FBD6
:100ADE00E47B41FAF9F81221E8AC00AD01AE02AFA9
:100AEE0003EC4D4E4F6033E47B05FAF9F8900CDCC5
:100AFE00E0FCA3E0FDA3E0FEA3E0FF1221E8AC00C2
:100B0E00AD01AE02AF03EC4D4E4F7BFF60067A1D7A
:100B1E00794F800C7A1D797080067BFF7A1D797271
:100B2E00900D4DEBF0A3EAF0A3E9F07BFF7A1D796F
:100B3E006A1218C3900D13E024FFF0900D12E034EA
:100B4E00FFF0020A82E47B41FAF9F8900CDCE0FC3B
:100B5E00A3E0FDA3E0FEA3E0FF1221E8AC00AD018F
:100B6E00AE02AF03EC4D4E4F7BFF60067A1D7972DD
:100B7E0080047A1D794F900D49EBF0A3EAF0A3E9BA
:100B8E00F0900D11E024FBFE900D10E034FF900D5F
:100B9E004CF0A3CEF07BFF7A1D79741218C37BFF45
:100BAE007A1D79821218C37BFF7A1D79891218C3B8
:100BBE007BFF7A1D79B21218C3900D1EE4F0A37458
:100BCE0002F07BFF7A1D79DB1218C3900D1EA3E095
:100BDE00FF74017E00A807088005C333CE33CED83C
:100BEE00F9900D21F0EE900D20F0900D2EE0F8A36F
:100BFE00E0F9A3E0FAA3E0FBA3E0FCA3E0FDA3E091
:100C0E00FEA3E0FF120F93C004C005C006C00790FC
:100C1E000D20E0FCA3E0FDE4121233A804A905AAFE
:100C2E0006AB07D007D006D005D004121191900D57
:100C3E00221216FB900D2EE0FCA3E0FDA3E0FEA316
:100C4E00E0FF121F861222FD900D22E0F8A3E0F9BC
:100C5E00A3E0FAA3E0FB121088E4FBFAF978401245
:100C6E001191900D2A1216FB900D1CE4F0A304F0C6
:100C7E00900D20E0FEA3E0FF900D1CE0FCA3E0FD34
:100C8E00C39FEC9E5078E4121233900D22E0F8A32D
:100C9E00E0F9A3E0FAA3E0FB121088900D261216DD
:100CAE00FB900D2AE0F8A3E0F9A3E0FAA3E0FBC065
:100CBE0000C001C002C003900D26E0FCA3E0FDA31E
:100CCE00E0FEA3E0FF121F861222FD900D22E0F837
:100CDE00A3E0F9A3E0FAA3E0FB121088D003D00240
:100CEE00D001D000120F97900D2A1216FB900D1DF9
:100CFE00E004F07006900D1CE004F0020C7E900DE6
:100D0E002AE0F8A3E0F9A3E0FAA3E0FBC000C001DB
:100D1E00C002C003900D32E0FCA3E0FDA3E0FEA3F1
:100D2E00E0FF121F861222FD900D22E0F8A3E0F9DB
:100D3E00A3E0FAA3E0FB121088E4FBFAF978401264
:100D4E001191D003D002D001D000120F97900D2A2E
:100D5E001216FB7BFF7A1E7903900D20E0FFA3E0B5
:100D6E00900D49CFF0A3EFF0900D2AE0FCA3E0FD2B
:100D7E00A3E0FEA3E0FF900D4B1216FB1218C390DA
:100D8E000D1FE004F07006900D1EE004F0C3900DF0
:100D9E001FE0941B900D1EE094005003020BD07BBD
:100DAE00FF7A1D79821218C3900D40E0FEA3E0FF7A
:100DBE00EE3395E0FDFC7B807A4A795D7805C312AF
:100DCE0016AD405C900D40E0FEA3E0FF900D3FE0BD
:100DDE002FF0900D3EE03EF0900D41E02402F09099
:100DEE000D40E03400F0900D3EE0FCA3E0FDEC126F
:100DFE0012331220B4900D361216FB900D40E0FC0B
:100E0E00A3E0FDEC121233900D36E0F8A3E0F9A347
:100E1E00E0FAA3E0FB121088900D361216FB8088C4
:100E2E007BFF7A1E791C900D3EE0FFA3E0900D49EA
:100E3E00CFF0A3EFF01218C37BFF7A1E7944900D0A
:100E4E0036E0FCA3E0FDA3E0FEA3E0FF900D491207
:100E5E0016FB1218C3900D44E0FEA3E0FFEE33958F
:100E6E00E0FDFC7B807A4A795D7805C31216AD40B1
:100E7E005C900D44E0FEA3E0FF900D43E02FF09058
:100E8E000D42E03EF0900D45E02402F0900D44E05E
:100E9E003400F0900D42E0FCA3E0FDEC1212331290
:100EAE0020B4900D3A1216FB900D44E0FCA3E0FD29
:100EBE00EC121233900D3AE0F8A3E0F9A3E0FAA396
:100ECE00E0FB121088900D3A1216FB80881222EE6B
:100EDE009000041216FB7BFF7A1E7965900D42E09E
:100EEE00FFA3E0900D49CFF0A3EFF01218C37BFFE4
:100EFE007A1E7944900D3AE0FCA3E0FDA3E0FEA338
:100F0E00E0FF900D491216FB1218C3900000E0F896
:100F1E00A3E0F9A3E0FAA3E0FBA3E0FCA3E0FDA3AA
:100F2E00E0FEA3E0C39BFFEE9AFEED99FDEC98FC6C
:100F3E00E412122EE4FBFA797A78441211919000A1
:100F4E00081216FB7BFF7A1E798C900008E0FCA33A
:100F5E00E0FDA3E0FEA3E0FF900D491216FB121870
:100F6E00C37BFF7A1E79A41218C37BFF7A1E79EF1A
:100F7E001218C31222DAEF3395E0900D3EF0A3EF74
:010F8E00F072
:010F8F00223F
:100F90000212A1E86480F8E933E83360110460F0DC
:100FA000ED33EC337009E8FCE9FDEAFEEBFF2204C7
:100FB00060DED3EB9FEA9EE99DE8C2E78CF0C2F7C2
:100FC00095F0400CE8CCF8E9CDF9EACEFAEBCFFB8E
:100FD00012126C85D0F05804700320D5B3E8047069
:100FE000075002B2D50212AB92D5EC0460F7E4CC04
:100FF000C0E0C398F8603B94186008400DD0E0FB57
:10100000021283E4FBFAC9FC8028E830E406E4C954
:10101000FBE4CAFCE830E305E4C9CACBFCE85407AA
:101020006010F8C3E913F9EA13FAEB13FBEC13FCB5
:10103000D8F130F52FC3E49CFCEF9BFFEE9AFEED58
:1010400099FDD0E0FBEF4E4D4C701222DB030212F3
:10105000A8EC2CFCEF33FFEE33FEED33FDED30E773
:10106000EB021283EF2BFFEE3AFEED39FDD0E0FBF1
:1010700050130BBB00030212ABED13FDEE13FEEF9A
:0810800013FFEC13FC021283C4
:10108800EC4D6011E8497017ED33EC3304600DE462
:10109800FCFFFEFD22E933E8330470F80212A112C6
:1010A800126C58046009E4CC2481500628500902C7
:1010B80012AB2840030212A8C0E0EB4A7044B98082
:1010C80006D0E0FB021297EF4E701CBD8008EBFFC4
:1010D800EAFEE9FD80EBE98DF0A4FEE5F00211716E
:1010E800E9CDF9EAFEEBFFEF89F0A4FCE5F0CE8943
:1010F800F0A42EFFE435F0CD89F0A42DFEE435F000
:101108008067EF4E7005BD80D780C3EF8BF0A4AC2D
:10111800F0EE8BF0A42CFCE435F0F8EF8AF0A42C68
:10112800E5F038FCE433CB8DF0A42CFCE5F03BF87B
:10113800EE8AF0A42CFCE5F038F8E433CF89F0A46B
:101148002CFCE5F038CF3400CE89F0A42FFFE5F071
:101158003EFEE433C98DF0A42EFEE5F039CD8AF0C9
:10116800A42FFFE5F03EFEE43DFD33D0E0FB500741
:101178000BBB000F0212ABEC2CFCEF33FFEE33FE7F
:06118800ED33FD021283AD
:10118E000212ABEC5D046005E8590470030212A173
:10119E0012126C580460F6EC4860F2EC7004FDFE1E
:1011AE00FF22C860DB2481C85009C3986002500634
:1011BE000212A89850CAF582E9294B4A7005AB82F3
:1011CE0002129775F0007C1A7880C3EF9BEE9AEDB1
:1011DE0099400DC3EF9BFFEE9AFEED99FDE842F0AC
:1011EE00DC23ACF0D0E0FFD0E0FED0E0FDAB8220FF
:1011FE00E7101BEB60BAEC2CFCEF33FFEE33FEED89
:10120E0033FD021283E803F830E705C0F075F000F5
:10121E00EF2FFFEE33FEED33FD40B830E7C280AA6C
:10122E0075F020800E75F010800575F0087D007E3B
:10123E00007F003392D530D50312169FEC33401049
:10124E00EF33FFEE33FEED33FDEC33FCD5F0ED2244
:0E125E00E5F0247EA2D513CC92E7CDCEFF2280
:10185800E5102449F582E4340DF583E00510229063
:101868000D46300703900D49E475F0011217440244
:1018780015E22000E97F2ED2008018EF540F249043
:10188800D43440D4FF30040BEF24BFB41A00500303
:101898002461FFE511600215110514E514700205B5
:1018A8001330070E900D46E475F001121744EF024D
:1018B80016280222697403D2078003E4C207F510D0
:1018C800900D4612175BE4F511F513F514E5116058
:1018D800077F2012189B80F57512FFC201C200C253
:1018E80002C203C205C206C208121867FF700D3093
:1018F80007057F001218ACAF14AE1322B4255FC2DF
:10190800D5C204121867FF24D0B40A00501A75F023
:101918000A781130D50508B6FF0106C6A426F620B8
:10192800D5047002D20380D924CFB41A00EF500432
:10193800C2E5D204021B9ED20180C6D20080C0D26A
:101948000280BCD2D580BAD20580B47F2012189B01
:101958002002077401B5110040F1121858FF12183F
:101968009B0218D5D208D2068095121858FB121877
:1019780058FA121858F94A4B7006799C7A1C7BFF62
:1019880020022EE511602A7E008E827583001215D2
:10199800FB60060EEE651270F0C2D5EBC0E0EAC03F
:1019A800E0E9C0E0EE121BFFD0E0F9D0E0FAD0E0A9
:1019B800FB1215E2FF60AAEBC0E0EAC0E0E9C0E074
:1019C80012189BD0E02401F9D0E03400FAD0E0FBF3
:1019D800E5120460DCD512D98087D20280A2121BDE
:1019E800E160F7E5127001041212EDA912600DE52D
:1019F80012600914F512121C89EF60F3EA30E7024D
:101A0800F404C3995079EAF425120430E701E40498
:101A1800F512800D121BE160C1EA0512251212129F
:101A2800EDEA900D75F030E701E4251204D51204B3
:101A380020050114121BFFE4C0E0121C89900D75EB
:101A4800E0601320E70714F0121883802204F0D016
:101A5800E014C0E07F00121883E512600712187ABC
:101A68001512800B30050312187AD0E00218D5D071
:101A7800E00480C4121BE1609EE512041212ED908E
:101A88000D75EAF0E5122005026001042404121B1A
:011A9800FF4E
:101A990074FF04C0E0121C89121883E512200502A4
:101AA900600312187AD0E0B512E87F4512188D90BC
:101AB9000D75E07F2B30E7047F2DF404C0E0121888
:101AC9009BD0E075F00A84C0F0121884D0E0121897
:101AD900840218D5791080027908C206C2088008E4
:101AE900D2D5790A8004790AC2D5E512047002F5C3
:101AF90012E4FAFDFEFF121858FC7B0820011312AC
:101B09001858FD7B1030000A121858FE121858FF99
:101B19007B20EC3382D592D55013C3E43000069F65
:101B2900FFE49EFEE42001039DFDE49CFCE4CBF868
:101B3900C201EC700CCFCECDCCE824F8F870F3805C
:101B490017C3EF33FFEE33FEED33FDEC33FCEB331C
:101B5900FB994002FB0FD8E9EB300105F8D0E0C44E
:101B690048B201C0E00AEC4D4E4F78207B0070C2AC
:101B7900EAB5120040BCC0E0121C01D0F0D0E02050
:101B89000104C4C0E0C4B201C0F0121884D0F0D579
:101B9900F0EB0218D51217641972531ADD5819435C
:101BA9004C193F421AE14F1AE9441AE949195843B5
:101BB9001AEF551A1C461A7C4519E6471CBC5019E0
:101BC900472D194B2E196E2B194F23196C201CA563
:101BD9002A19074800001966E512B4FF03751206B1
:101BE900121858FC121858FD121858FE121858FFEE
:101BF900900D6E02132A790AA2D520031430050923
:101C0900B910020404B9080104A2D5200602500142
:101C1900042002689202B511005034C0E07F2030E0
:101C290003197F30A20272067205500F121C58C2A6
:101C390002C206C205C2087F30800F300503E9C021
:101C4900E012189B300503D0E0F9D0E0B511CC3093
:101C590005177F30B9100C12189B7F583004077F85
:101C6900788003B9080312189B3002057F2D0218EA
:101C79009B7F202008F87F2B2006F322920280CF39
:101C89007F00B40700500B246EF582E4340DF58310
:101C9900E0FF22286E756C6C2900D20112185830A9
:101CA90001F8C201781130D50108F60219072D5043
:101CB9004349581218582403B405004001E4901C04
:101CC900B79312188C743A12188CD2037511040246
:021CD9001ADD12
:0D22FD00ED33EC3360065004EC6480FC22ED
:1020B0000212A122EDA2E7D2E7F9EC3340F260F37D
:1020C000B4FF08ED547F70E80212ABF82481C2E03F
:1020D000C0E0F40428FAC313FCED92E7FD900D462E
:1020E0001216FBEEA2E7E9BA7F02C3133400940094
:1020F000FA75F091A4E5F013F494FE8AF0A433E5A8
:10210000F033248CD313FDE492E7FE7F007C3F750F
:102110008302ECC0E0F8EDC0E0F9EEC0E0FAEFC0F9
:10212000E0FB8583F0900D461216C385F0831211F3
:1021300091D0E0FBD0E0FAD0E0F9D0E0F8120F97B0
:10214000ED6480FD30E7011CD583C7ED33CC33F857
:0C215000D0E0A2E71328C313CC13FD223B
:101F28003A70FA83BCAAE9E43E81E0F8BF9DE9E68D
:101F38003F80000039283C1ABB9969663DA335E308
:101F4800BF255DE73FC90FDB418DDBCCC44936EEC9
:101F580045C9913FC5B0F83D3F800000C317F5342F
:101F6800452FFA73C60AFDDD12203104A2E1920062
:101F78001420E015901F28740412142F80301220AA
:101F88003130E102B20020E0EBA883A982900D462F
:101F98001216FB89828883901F3C740412142F85C3
:101FA80082F0900D461216DF85F082121088ED4CF3
:101FB8006007300004EC6480FC22122031C0E0A8E5
:101FC80083A982900D461216FB89828883901F6030
:101FD800740312142F8582F0900D461216DF85F0D7
:101FE80082121088900D46E0CCF0A3E0CDF0A3E07B
:101FF800CEF0A3E0CFF0901F50740312142FD082BC
:102008008582F0900D461216DF85F082E58230E079
:1020180007121191B2008096EFCBFFEECAFEEDC910
:10202800FDECC8FC1211918085ED33EC547FCC3364
:10203800920024605007D0E0D0E00212A17B837A9E
:10204800F97922783E121088EDF933ECF8332481BF
:102058005011EFFBEEFA1212B612122EECB2E7FC98
:10206800120F97ED33EC33602F2403F8C313FCED04
:1020780092E7FDE82481E4501FECF8EDF9EEFAEF61
:10208800FB1212B6EF04C2E0FCF582121238ECB271
:10209800E7FC120F97E58203FAED33EC336007147F
:0820A80013FCED92E7FDEA22B2
:10126C00E9D2E7C933E833F892D5EDD2E7CD33ECC8
:07127C0033FC5002B2D52241
:10128300EC30E7100FBF000C0EBE00080DBD0004CC
:101293000BEB6014A2D5EB13FCED92E7FD2274FF78
:1012A300FCFDFEFF22E480F8A2D574FF13FC7D80D1
:0312B300E480EFE5
:1012B600EDD2E7CD33EC3392D524814006E4FFFE30
:1012C600FDFC22FCE4CFCECDCC24E0501174FF808F
:1012D600EDC3CC13CCCD13CDCE13CECF13CF04702C
:0712E600F030D5DE02169F77
:1012ED00F920E73624F950037907E4F42402FBE5ED
:1012FD0082158270021583DBF6E024FB501BE9603A
:10130D0014E4F0E582158270021583E004F0B40A4E
:0D131D0008E4F0D9EE7401F00A22C2D522D6
:10132A00ED33EC3392D5FA602AB4FF33EDC2E77B92
:10133A00FF60067A13794FE4227A13795820D5048C
:10134A007A137953224E614E002B494E46002D499D
:10135A004E4600E47A08F0A3DAFC7B00740722C048
:10136A0083C082ECC0E0EDC0E0EEC0E0EFC0E0EA8E
:10137A0075F010A4CAABF075F04DA42BFBE435F060
:10138A00FCEA2410FAEB34C5FBEC34D9FCEDC2E7D5
:10139A00FF75F056A4F42411C5F0F434C58FF0A4F7
:1013AA002AE5F03BE43CF020E7141214ACD0E0FF4D
:1013BA00D0E0FED0E0FDD0E0FC1211918014F404DC
:1013CA001214ACD0E0FFD0E0FED0E0FDD0E0FC1279
:1013DA001088D082D083E0FAEDD2E7CD33EC332403
:1013EA0082FBE4C3CF33CFCE33CECD33CD33DBF361
:1013FA007B0775F00A846004F0A31B0AE5F0F0A3EA
:10140A008FF0740AA4FFACF08EF0740AA42CFEAC20
:10141A00F050010C8DF0740AA42CFDE435F0F0A311
:05142A00DBDE74072267
:10142F00C0E0EFFBEEFAEDF9ECF8121088D0E0F522
:10143F00F0EFFBEEFAEDF9ECF81216CFA3A3A3A38E
:10144F00E8C0E0E9C0E0EAC0E0EBC0E0C0F0121095
:10145F00881216EBA3A3A3A3120F97D0F0D0E0FB33
:0D146F00D0E0FAD0E0F9D0E0F8D5F0D422BA
:10147C003F8000004120000042C80000447A000078
:10148C00461C400047C35000497424004B189680FA
:10149C004CBEBC205A0E1BCA6753C21C749DC5AEF1
:1014AC00FB60065407601C23231214DAEB543860DB
:1014BC00091214C61214D5121088ECF8EDF9EEFAD4
:1014CC00EFCB22EB1214D580F1543803241C90146A
:1014DC007CFE93FC0EEE93FD0EEE930ECE93FF224C
:0300000002215C7E
:0C215C00787FE4F6D8FD7581210221A3F4
:1014EC00E709F608DFFA8046E709F208DFFA803EE2
:1014FC0088828C83E709F0A3DFFA8032E309F608CF
:10150C00DFFA8078E309F208DFFA807088828C8336
:10151C00E309F0A3DFFA806489828A83E0A3F608EA
:10152C00DFFA805889828A83E0A3F208DFFA804CC4
:10153C0080D280FA80C680D4806980F2803380109B
:10154C0080A680EA809A80A880DA80E280CA803304
:10155C0089828A83ECFAE493A3C8C582C8CCC5837C
:10156C00CCF0A3C8C582C8CCC583CCDFE9DEE7804C
:10157C000D89828A83E493A3F608DFF9ECFAA9F0CB
:10158C00EDFB2289828A83ECFAE0A3C8C582C8CC21
:10159C00C583CCF0A3C8C582C8CCC583CCDFEADE3A
:1015AC00E880DB89828A83E493A3F208DFF980CC9C
:1015BC0088F0EF60010E4E60C388F0ED2402B40495
:1015CC000050B9F582EB2402B4040050AF2323453C
:0615DC00822390153C7310
:1015E200BB010689828A83E0225002E722BBFE0207
:0915F200E32289828A83E493223A
:1015FB00BB010CE58229F582E5833AF583E02250A5
:10160B0006E92582F8E622BBFE06E92582F8E222EE
:0D161B00E58229F582E5833AF583E4932208
:10162800BB010689828A83F0225002F722BBFE01A1
:02163800F3229B
:10163A00A3F8E0C5F025F0F0E58215827002158363
:06164A00E0C838F0E822C0
:10165000E88FF0A4CC8BF0A42CFCE98EF0A42CFC39
:101660008AF0EDA42CFCEA8EF0A4CDA8F08BF0A4B7
:101670002DCC3825F0FDE98FF0A42CCD35F0FCEB16
:101680008EF0A4FEA9F0EB8FF0A4CFC5F02ECD39DB
:0F169000FEE43CFCEAA42DCE35F0FDE43CFC2248
:1021E800C2D5E830E70FB2D5E4C39BFBE49AFAE422
:1021F80099F9E498F8EC30E717B2D512221E1217B5
:10220800C6E4C39BFBE49AFAE499F9E498F88003DE
:102218001217C630D50DE4C39FFFE49EFEE49DFD72
:04222800E49CFC2214
:0E169F00C3E49FFFE49EFEE49DFDE49CFC225C
:1016AD00EB9FF5F0EA9E42F0E99D42F0EC6480C8B4
:0616BD0064809845F02254
:0C16C300E0FCA3E0FDA3E0FEA3E0FF229A
:1016CF00E493FC740193FD740293FE740393FF2261
:0C16DF00E0F8A3E0F9A3E0FAA3E0FB228E
:1016EB00E493F8740193F9740293FA740393FB2255
:0C16FB00ECF0A3EDF0A3EEF0A3EFF02262
:10170700A8828583F0D083D08212171E12171E126B
:10171700171E12171EE473E493A3C583C5F0C58390
:10172700C8C582C8F0A3C583C5F0C583C8C582C82C
:01173700228F
:0C173800A42582F582E5F03583F58322BC
:10174400F8E0FBA3A3E0F925F0F0E582158270022E
:071754001583E0FA38F022D2
:09175B00EBF0A3EAF0A3E9F0228F
:10176400D083D082F8E4937012740193700DA3A314
:1017740093F8740193F5828883E473740293686028
:06178400EFA3A3A380DF28
:1022DA0010090B12230ABF0D027F0A022269900D10
:0422EA007AE0FF2275
:1021680002000EE493A3F8E493A34003F68001F27F
:1021780008DFF48029E493A3F85407240CC8C33378
:10218800C4540F4420C8834004F456800146F6DF47
:10219800E4800B0102040810204080900003E47ED4
:1021A800019360BCA3FF543F30E509541FFEE4933C
:1021B800A360010ECF54C025E060A840B8E493A303
:1021C800FAE493A3F8E493A3C8C582C8CAC583CA2E
:1021D800F0A3C8C582C8CAC583CADFE9DEE780BEE6
:01000A0000F5
:10178A0075F008758200EF2FFFEE33FECD33CDCC16
:10179A0033CCC58233C5829BED9AEC99E582984099
:1017AA000CF582EE9BFEED9AFDEC99FC0FD5F0D676
:1017BA00E4CEFBE4CDFAE4CCF9A88222B800C1B9A0
:1017CA000059BA002DEC8BF084CFCECDFCE5F0CBDE
:1017DA00F97818EF2FFFEE33FEED33FDEC33FCEB17
:1017EA0033FB10D703994004EB99FB0FD8E5E4F9D2
:1017FA00FA227818EF2FFFEE33FEED33FDEC33FCBF
:10180A00C933C910D7059BE99A4007EC9BFCE99AB2
:10181A00F90FD8E0E4C9FAE4CCFB2275F010EF2FF7
:10182A00FFEE33FEED33FDCC33CCC833C810D707F7
:10183A009BEC9AE899400AED9BFDEC9AFCE899F832
:0E184A000FD5F0DAE4CDFBE4CCFAE4C8F922C5
:0A230A003098FDAF99C2987E0022C2
:00000001FF
